:1008D800505200504E5200425A4D3A20005A41554B
:1008E8005A005253542E2E2E005374616E6A653A84
:1008F800200000526164692E0A00004E6520726172
:1009080064692E0A00005472656E75746E6F206EED
:1009180061207061726B696E67753A2000002D2D39
:100928002D2D2D2D2D2D2D2D2D2D2D2D2D2D2D2DEF
:100938002D2D2D00005061726B696E67207A6175EC
:100948007A65742E0A00002D2D2D2D2D2D2D2D2D7F
:100958002D2D2D2D2D2D2D2D2D2D2D2D0A00005217
:10096800616D70612073652072657374617274754E
:100978006A652E2E2E0A00002D2D2D2D2D2D2D2DA4
:0F0988002D2D2D2D2D2D2D2D2D2D2D2D2D000017
:100BB10041002C0141002D00410020004100210095
:100BC10041002A00410024014100260041001C008F
:100BD10041001D00410023004100290141002B007B
:100BE10041001E0041001F004100280041000F008C
:100BF10041001000410025004100270041000E0086
:100C010042000A000042000C000041002200C1071E
:100C1100C100C106C105C102C103C104C101410036
:020C21001B00B6
:100C2400900079EBF0A3EAF0A3E9F0900079E0FBFF
:100C3400A3E0FAA3E0F99000011206C2FF1206A98C
:100C4400B5072E90007CE0FBA3E0FAA3E0F9740161
:100C54001206EFB4052AE4120711900079E0FBA311
:100C6400E0FAA3E0F99000011206C2900002020724
:100C74002390007CE0FBA3E0FAA3E0F9E41207115F
:010C8400224D
:03001B0002078851
:10078800C0E0C0F0C083C082C0D075D000C000C037
:1007980001C002C003C006C007758DEE758B00301E
:1007A800063590000AE475F001120745FEE5F08E63
:1007B800F012075B07D0009607D0012C07D001C2C2
:1007C80007D40258000007DFB2A7800BC2069000CA
:1007D8000AE4F0A3F0D2A730051C90000CE475F0F1
:1007E80001120745AFF0FEBE030CBFE809C2059031
:1007F800000CE4F0A3F0A280E433900012F0A28190
:10080800E433900017F0A282E433900001F0A28351
:10081800E433900006F0A284E43390002FF09000B7
:100828007C7401F0A37400F0A3740FF07B017A00CC
:100838007911120C2490007C7401F0A37400F0A3C9
:100848007410F07B017A007916120C2490007C74E5
:1008580001F0A37400F0A37425F07B017A007900FD
:10086800120C2490007C7401F0A37400F0A3742788
:10087800F07B017A007905120C2490007C7401F059
:10088800A37400F0A3740EF07B017A00792E120C89
:1008980024900012E0900011F0900017E0900016EC
:1008A800F0900001E0900000F0900006E090000554
:1008B800F090002FE090002EF0D007D006D003D0A3
:1008C80002D001D000D0D0D082D083D0F0D0E03296
:03002300020C8547
:100C8500C0E0C083C082C0D075D000C00730992EA7
:100C9500C299900022E02433F582E43400F583E024
:100CA5009000226013E0FF04F074332FF582E434E2
:100CB50000F583E0F5998006E4F0900033F0D00765
:090CC500D0D0D082D083D0E032FF
:100345001200037BFF2007067A0879D880047A0813
:1003550079DB120D13120D697BFF7A0879DF120D17
:100365001390001BE0C3940950047F3080027F3155
:10037500120CCE90001BE075F00A84E5F02430FFE6
:03038500120CCE89
:1003880078997C007D017BFF7A0879F17E007F0AED
:10039800120683E49000A3F09000A3E02499F5826C
:1003A800E43400F583E060289000A3E0FF04F074D3
:1003B800992FF582E43400F583E0FF900022E0FEF7
:1003C80004F074332EF582E43400F583EFF080C82E
:0303D800200750AB
:1003DB0078997C007D017BFF7A0879FB7E007F0892
:1003EB00120683E49000A1F09000A1E02499F5821D
:1003FB00E43400F583E060789000A1E0FF04F07432
:10040B00992FF582E43400F583E0FF900022E0FEA3
:10041B0004F074332EF582E43400F583EFF080C8DA
:10042B0078997C007D017BFF7A0979037E007F0B35
:10043B00120683E49000A4F09000A4E02499F582C6
:10044B00E43400F583E060289000A4E0FF04F0742E
:10045B00992FF582E43400F583E0FF900022E0FE53
:10046B0004F074332EF582E43400F583EFF080C88A
:10047B0078997C007D017BFF7A09790E7E007F18CD
:10048B00120683E49000B1F09000B1E02499F5825C
:10049B00E43400F583E060289000B1E0FF04F074D1
:1004AB00992FF582E43400F583E0FF900022E0FE03
:1004BB0004F074332EF582E43400F583EFF080C83A
:1004CB0090001BE0FFC39409900022E0FE04501043
:1004DB00F074332EF582E43400F5837430F0800E23
:1004EB00F074332EF582E43400F5837431F0EF753C
:1004FB00F00A84E5F02430FF900022E0FE04F07453
:10050B00332EF582E43400F583EFF0900022E0FF08
:0F051B0004F074332FF582E43400F583740AF092
:10052A0078997C007D017BFF7A0979267E007F1706
:10053A00120683E49000B0F09000B0E02499F582AE
:10054A00E43400F583E060289000B0E0FF04F07422
:10055A00992FF582E43400F583E0FF900022E0FE53
:10056A0004F074332EF582E43400F583EFF080C88A
:10057A00900022E0FF04F074332FF582E43400F592
:10058A0083740AF0900022E02433F582E43400F503
:10059A0083E4F0900022F0E0FF04F074332FF58238
:0905AA00E43400F583E0F5992228
:10099700900099EBF0A3EAF0A3E9F0900099E0FB4F
:1009A700A3E0FAA3E0F9EB8A8389826401700A74F1
:1009B7001165827004740065839000997037E0FBBD
:1009C700A3E0FAA3E0F97401120711900099E0FB84
:1009D700A3E0FAA3E0F99000047401120723900042
:1009E700017401120723900002740112072390007B
:1009F7000374018030E0FBA3E0FAA3E0F9E41207F7
:100A070011900099E0FBA3E0FAA3E0F9900004E459
:100A1700120723900001E4120723900002E4120753
:090A270023900003E412072322CE
:100B3E00C2AF120ABCD280C281C282C283C2847585
:100B4E009850E587543F4480F587E59B54E0441C5C
:100B5E00F59B759AFDD2AC758DEEE4F58BE5895457
:100B6E000F4410F589D2ABD28ED2AB120345E4F509
:100B7E00A0D2A77B017A0079111209977B017A0026
:100B8E0079161209977B017A0079001209977B0179
:100B9E007A0079051209977B017A00792E1209974E
:030BAE00D2AF22A1
:10002600120B3E900013E0A3F0900018E0A3F090AE
:100036000002E0A3F0900007E0A3F0900030E0A3F8
:10004600F0300703020212900004E0FF900003E084
:10005600FED39F5013900007E0FDA3E09D500920BA
:100066000306200403020324EED39F500620030355
:0E00760002015990001BE0640F600302015963
:10008400787F7C007D017BFF7A09793DFE7F121227
:100094000683E4900091F0900091E0247FF582E4DF
:1000A4003400F583E06028900091E0FF04F0747F51
:1000B4002FF582E43400F583E0FF900022E0FE0493
:0F00C400F074332EF582E43400F583EFF080C83A
:1000D300787F7C007D017BFF7A09794F7E007F1852
:1000E300120683E4900097F0900097E0247FF58256
:1000F300E43400F583E06028900097E0FF04F07497
:100103007F2FF582E43400F583E0FF900022E0FEC8
:1001130004F074332EF582E43400F583EFF080C8E5
:10012300900022E02433F582E43400F583E4F09078
:100133000022F0E0FF04F074332FF582E43400F57D
:1001430083E0F5991200037BFF7A0879E5120D131A
:10015300120D8A020321D206300604D2A080F9C20E
:10016300A0120D8A900018E06042D20520050C9081
:100173000002E07006900007E0602C900004E0FFAE
:10018300900003E0D39F4008900007E06002D20193
:10019300900009E0FF900008E0D39F40CF90000259
:1001A300E060C9D20180C5120D8A8002805020010F
:1001B30036900004E0FF900003E0D39F5003300328
:1001C3000B90001BE004F0B40F02D202900009E090
:1001D300FF900008E0D39F500330040B90001BE016
:1001E30014F0B40E02C202120345D206300604D242
:1001F300A180F9C2A1120D8A900013E07008D20702
:10020300120345020029C203C204C201020324905F
:0F0213000032E0FF900031E0D39F50030203243C
:10022200787F7C007D017BFF7A0979677E007F19E8
:10023200120683E4900098F0900098E0247FF58203
:10024200E43400F583E06028900098E0FF04F07445
:100252007F2FF582E43400F583E0FF900022E0FE78
:1002620004F074332EF582E43400F583EFF080C895
:10027200787F7C007D017BFF7A0979807E007F1781
:10028200120683E4900096F0900096E0247FF582B7
:10029200E43400F583E06028900096E0FF04F074F7
:1002A2007F2FF582E43400F583E0FF900022E0FE28
:1002B20004F074332EF582E43400F583EFF080C845
:1002C200900022E0FF04F074332FF582E43400F54D
:1002D20083740AF0900022E02433F582E43400F5BE
:1002E20083E4F0900022F0E0FF04F074332FF582F3
:1002F200E43400F583E0F5991200037BFF7A087974
:10030200EA120D13120D8A900002E060052003022A
:10031200D203900007E06005200402D204C2071253
:100322000345900014E0A3F0900019E0A3F09000C0
:1003320003E0A3F0900008E0A3F0900031E0A3F006
:030342000200298D
:070DD7007590E075B0F922F0
:100D8A00E58954F04401F589E4FF758CEEE4F58AAF
:0C0D9A00D28C308DFDC28D0FEFB4C8EE7E
:010DA600222A
:060DC300D292C293C2B2FD
:0E0DC900758CFF758AD2D28C308DFDC28D22C2
:0E0DA700C2B3D2B2C290C291C292D293C2B273
:0E0DB500758CF8758ACDD28C308DFDC28D22E2
:100ABC00120DD7120D8AC2B3D2B2C290C291120DCE
:100ACC00C3C2B3D2B2C290C291D292C293C2B2008C
:100ADC00C2B3D2B2D290C291C292120DC5C2B3D2DD
:100AEC00B2C290C291C292C293C2B200C2B3D2B28D
:100AFC00D290D291D292D293C2B2120DC9C2B3D2B9
:100B0C00B2C290C291C292C293C2B200120DA7128D
:100B1C000DB5C2B3D2B2C290C291C292C293C2B24C
:100B2C0000C2B3D2B2C290D291120DC3120DB5D283
:020B3C00942201
:10000300C2B3D2B2C290C291C292C293C2B2001220
:050013000DA7020DB570
:050D45009290AF041DB7
:100D4A007401A805088002C333D8FC5FFFAE05A86A
:0E0D5A0006088002C313D8FC24FF9208A208EA
:010D68002268
:100CCE00AC07D2B3D2B27D07120D4A120D459291E6
:100CDE00AF041D120D4A9292AF041D120D4A92934B
:100CEE00C2B200D2B2AF041D120D4A120D4592913E
:100CFE00AF041D120D4A9292AF041D120D4A92932B
:050D0E00C2B2020DC994
:0B0D13009000B2EBF0A3EAF0A3E9F0BF
:100D1E00E4A3F09000B2E0FBA3E0FAA3E0F9A3E0B5
:100D2E00F5827583001206C2FF600B120CCE900086
:060D3E00B5E004F080DDC9
:010D4400228C
:100D6900C2B3D2B2D290D291C292C293C2B200D2CD
:100D7900B2C290C291C292C293C2B2120DB5020D13
:010D8900B5B4
:03000000020A30C1
:0C0A3000787FE4F6D8FD758121020A777A
:1005B300E709F608DFFA8046E709F208DFFA803E2A
:1005C30088828C83E709F0A3DFFA8032E309F60817
:1005D300DFFA8078E309F208DFFA807088828C837F
:1005E300E309F0A3DFFA806489828A83E0A3F60833
:1005F300DFFA805889828A83E0A3F208DFFA804C0D
:1006030080D280FA80C680D4806980F280338010E3
:1006130080A680EA809A80A880DA80E280CA80334C
:1006230089828A83ECFAE493A3C8C582C8CCC583C4
:10063300CCF0A3C8C582C8CCC583CCDFE9DEE78094
:100643000D89828A83E493A3F608DFF9ECFAA9F013
:10065300EDFB2289828A83ECFAE0A3C8C582C8CC69
:10066300C583CCF0A3C8C582C8CCC583CCDFEADE82
:10067300E880DB89828A83E493A3F208DFF980CCE4
:1006830088F0EF60010E4E60C388F0ED2402B404DD
:100693000050B9F582EB2402B4040050AF23234584
:0606A300822390060373A0
:1006A900BB010689828A83E0225002E722BBFE024F
:0906B900E32289828A83E4932282
:1006C200BB010CE58229F582E5833AF583E02250ED
:1006D20006E92582F8E622BBFE06E92582F8E22237
:0D06E200E58229F582E5833AF583E4932251
:1006EF00BB010989828A83F8E028F022500327F79B
:1006FF0022BBFE05F8E328F3228A838982F8E4936C
:02070F0028229E
:10071100BB010689828A83F0225002F722BBFE01C7
:02072100F322C1
:10072300F8BB010DE58229F582E5833AF583E8F00C
:10073300225006E92582C8F622BBFE05E92582C8B8
:02074300F222A0
:10074500C5F0F8A3E028F0C5F0F8E582158270023F
:060755001583E038F022DC
:10075B00D083D082F8E4937012740193700DA3A32D
:10076B0093F8740193F5828883E473740293B5F064
:0D077B00067403936860E9A3A3A3A380D8CC
:100A3C00020026E493A3F8E493A34003F68001F2AA
:100A4C0008DFF48029E493A3F85407240CC8C333BB
:100A5C00C4540F4420C8834004F456800146F6DF8A
:100A6C00E4800B0102040810204080900BB1E47E5E
:100A7C00019360BCA3FF543F30E509541FFEE4937F
:100A8C00A360010ECF54C025E060A840B8E493A346
:100A9C00FAE493A3F8E493A3C8C582C8CAC583CA71
:100AAC00F0A3C8C582C8CAC583CADFE9DEE780BE29
:010C230000D0
:00000001FF
