:100A6100505200504E5200425A4D3A20005A4155C0
:100A71005A005355444152005253542E2E2E0053C6
:100A810074616E6A653A200000526164692E0A0041
:100A9100004E6520726164692E0A00005472656E11
:100AA10075746E6F206E61207061726B696E67750F
:100AB1003A2000002D2D2D2D2D2D2D2D2D2D2D2DBF
:100AC1002D2D2D2D2D2D2D2D2D00005061726B6999
:100AD1006E67207A61757A65742E0A00002D2D2DBE
:100AE1002D2D2D2D2D2D2D2D2D2D2D2D2D2D2D2D35
:100AF1002D2D0A000053756461720A00002D2D2D01
:100B01002D2D2D2D2D2D2D2D2D2D2D2D2D2D2D2D14
:100B11002D2D000052616D70612073652072657327
:100B210074617274756A652E2E2E0A00002D2D2DAA
:100B31002D2D2D2D2D2D2D2D2D2D2D2D2D2D2D2DE4
:040B41002D2D000056
:100C5300410018014100190041000C0041000D0042
:100C6300410016004100100141001200410008003C
:100C73004100090041000F00410015014100170028
:100C830041000A0041000B0041001400410005002F
:100C9300410006004100110041001300410004001F
:100CA3004200000000420002000041000E00C106A5
:100CB300C100C105C104C101C102C1034100070054
:100CC400900060EBF0A3EAF0A3E9F0A3E0FBA3E05B
:100CD400FAA3E0F91209A4FF900060E0FBA3E0FA94
:100CE400A3E0F91209A4B50734900069E0FBA3E07E
:100CF400FAA3E0F974011209EAB40530E4120A0C0B
:100D0400900060E0FBA3E0FAA3E0F91209A4FF90CD
:100D14000066E0FBA3E0FAA3E0F9EF800C90006921
:0D0D2400E0FBA3E0FAA3E0F9E4120A0C22C0
:03001B000206E8F2
:1006E800C0E0C0F0C083C082C0D075D000C000C0D8
:1006F80001C002C003C006C007758DEE758B0030BF
:100708000535900000E475F001120A1EFEE5F08E32
:10071800F0120A34073000960730012C073001C266
:10072800073402580000073FB2A7800BC2059000AB
:1007380000E4F0A3F0D2A730041C900002E475F0A6
:1007480001120A1EAFF0FEBE030CBFE809C20490F6
:100758000002E4F0A3F0A280E433900010F0A2813C
:10076800E433900012F0A282E433900008F0A283F0
:10077800E433A3F0A284E43390000FF09000637494
:1007880001F0A37400F0A37418F0A37401F0A3742B
:1007980000F0A37415F0A37401F0A37400F0A3741F
:1007A80005F07B017A007910120CC4900063740183
:1007B800F0A37400F0A37419F0A37401F0A37400FB
:1007C800F0A37417F0A37401F0A37400F0A37406E7
:1007D800F07B017A007912120CC49000637401F066
:1007E800A37400F0A3740CF0A37401F0A37400F0D8
:1007F800A3740AF0A37401F0A37400F0A37411F0B9
:100808007B017A007908120CC49000637401F0A38C
:100818007400F0A3740DF0A37401F0A37400F0A3A6
:10082800740BF0A37401F0A37400F0A37413F07BAD
:10083800017A007909120CC49000637401F0A37462
:1008480000F0A37416F0A37401F0A37400F0A3746D
:1008580014F0A37401F0A37400F0A37404F07B01F6
:100868007A00790F120CC4900010E0900018F090F4
:100878000012E0900019F0900008E090000CF09051
:100888000009E090000DF090000FE0900016F0D005
:1008980007D006D003D002D001D000D0D0D082D06B
:0608A80083D0F0D0E03225
:03002300020D319A
:100D3100C0E0C083C082C0D075D000C00730992EFA
:100D4100C29990000EE0241AF582E43400F583E0A4
:100D510090000E6013E0FF04F0741A2FF582E43462
:100D610000F583E0F5998006E4F090001AF0D007D1
:090D7100D0D0D082D083D0E03252
:10047A001200037BFF2006067A0A796180047A0A51
:10048A007964120E05120E5B7BFF7A0A7968120EE6
:10049A0005900007E0C3940950047F3080027F3141
:1004AA00120DC0900007E075F00A84E5F02430FFD1
:0304BA00120DC060
:1004BD0078907C007D017BFF7A0A79807E007F0A2F
:1004CD0012097EE490009AF090009AE02490F58253
:1004DD00E43400F583E0602890009AE0FF04F074A6
:1004ED00902FF582E43400F583E0FF90000EE0FEDE
:1004FD0004F0741A2EF582E43400F583EFF080C811
:03050D0020065075
:1005100078907C007D017BFF7A0A798A7E007F08D3
:1005200012097EE4900098F0900098E02490F58203
:10053000E43400F583E06078900098E0FF04F07404
:10054000902FF582E43400F583E0FF90000EE0FE8A
:1005500004F0741A2EF582E43400F583EFF080C8BD
:1005600078907C007D017BFF7A0A79927E007F0B78
:1005700012097EE490009BF090009BE02490F582AD
:10058000E43400F583E0602890009BE0FF04F07401
:10059000902FF582E43400F583E0FF90000EE0FE3A
:1005A00004F0741A2EF582E43400F583EFF080C86D
:1005B00078907C007D017BFF7A0A799D7E007F1810
:1005C00012097EE49000A8F09000A8E02490F58243
:1005D000E43400F583E060289000A8E0FF04F074A4
:1005E000902FF582E43400F583E0FF90000EE0FEEA
:1005F00004F0741A2EF582E43400F583EFF080C81D
:10060000900007E0FFC3940990000EE0FE04501034
:10061000F0741A2EF582E43400F5837430F0800E05
:10062000F0741A2EF582E43400F5837431F0EF751E
:10063000F00A84E5F02430FF90000EE0FE04F07430
:100640001A2EF582E43400F583EFF090000EE0FFFF
:0F06500004F0741A2FF582E43400F583740AF075
:10065F0078907C007D017BFF7A0A79B57E007F1749
:10066F0012097EE49000A7F09000A7E02490F58295
:10067F00E43400F583E060289000A7E0FF04F074F5
:10068F00902FF582E43400F583E0FF90000EE0FE3A
:10069F0004F0741A2EF582E43400F583EFF080C86D
:1006AF0090000EE0FF04F0741A2FF582E43400F589
:1006BF0083740AF090000EE0241AF582E43400F5FA
:1006CF0083E4F090000EF0E0FF04F0741A2FF5822F
:0906DF00E43400F583E0F59922F2
:100D7A00C2AF120BD1D280C281C282C283C2847531
:100D8A009850E587543F4480F587E59B54E0441C1E
:100D9A00F59B759AFDD2AC758DEEE4F58BE5895419
:100DAA000F4410F589D2ABD28ED2AB12047AE4F595
:060DBA00A0D2A7D2AF2277
:10002600120D7A900015E090006CF0900017E090A9
:10003600006DF090000AE090006EF090000BE090EA
:10004600006FF0900014E0900070F0300603020399
:1000560043900073E0FF90006EE0D39F400C900049
:1000660074E0FF90006FE06F600C2002030201BC99
:100076003003030201BCC202900007E0C3940250A1
:100086005FD205300504D2A080F9C2A0120E7C9082
:100096000017E06401704690006FE0FF90000BE0EF
:1000A6006F600690000BE070FAD2042004FD900009
:1000B6000AE0600280F5900007E004F0B40F02D277
:1000C6000112047AD205300504D2A180F9C2A11228
:1000D6000E7C900015E06401700302044F02023B9F
:1000E60078767C007D017BFF7A0A79CC7E007F12D0
:1000F60012097EE4900088F0900088E02476F5826C
:10010600E43400F583E06028900088E0FF04F07492
:10011600762FF582E43400F583E0FF90000EE0FED2
:1001260004F0741A2EF582E43400F583EFF080C8EB
:1001360078767C007D017BFF7A0A79DE7E007F1867
:1001460012097EE490008EF090008EE02476F5820F
:10015600E43400F583E0602890008EE0FF04F0743C
:10016600762FF582E43400F583E0FF90000EE0FE82
:1001760004F0741A2EF582E43400F583EFF080C89B
:1001860090000EE0241AF582E43400F583E4F09042
:10019600000EF0E0FF04F0741A2FF582E43400F547
:1001A60083E0F5991200037BFF7A0A796E120E0539
:1001B600120E7C02044C900073E0FF90006EE0B5D6
:1001C600070D900074E0FF90006FE0D39F5006206B
:1001D600026B300368C203D205300504D2A080F951
:1001E600C2A0120E7C900017E06401701F90006E92
:1001F600E0FF90000AE06F600690000AE070FAD215
:10020600042004FD90000BE0600480F58027900038
:1002160007E014F0B40E02C20112047AD2053005CA
:1002260004D2A180F9C2A1120E7C900015E06401EF
:10023600700302044FD20612047A0200299000735A
:10024600E0FF90006EE0D39F400D900074E0FF90B9
:10025600006FE0D39F500C20020302044F200303DB
:0302660002044F40
:1002690078767C007D017BFF7A0A79F67E007F082B
:1002790012097EE490007EF090007EE02476F582FB
:10028900E43400F583E0602890007EE0FF04F07418
:10029900762FF582E43400F583E0FF90000EE0FE4E
:1002A90004F0741A2EF582E43400F583EFF080C867
:1002B90078767C007D017BFF7A0A79FE7E007F17C4
:1002C90012097EE490008DF090008DE02476F5828D
:1002D900E43400F583E0602890008DE0FF04F074B9
:1002E900762FF582E43400F583E0FF90000EE0FEFE
:1002F90004F0741A2EF582E43400F583EFF080C817
:1003090090000EE0241AF582E43400F583E4F090BD
:10031900000EF090001AE0F5991200037BFF7A0AAB
:100329007973120E05120E7C12047A90000AE0709D
:10033900FAA3E0700302044F80F1900075E0FF908A
:0A0349000070E0D39F500302044F40
:1003530078767C007D017BFF7A0B79157E007F190F
:1003630012097EE490008FF090008FE02476F582EE
:10037300E43400F583E0602890008FE0FF04F0741C
:10038300762FF582E43400F583E0FF90000EE0FE63
:1003930004F0741A2EF582E43400F583EFF080C87C
:1003A30078767C007D017BFF7A0B792E7E007F17A8
:1003B30012097EE490008DF090008DE02476F582A2
:1003C300E43400F583E0602890008DE0FF04F074CE
:1003D300762FF582E43400F583E0FF90000EE0FE13
:1003E30004F0741A2EF582E43400F583EFF080C82C
:1003F30090000EE0FF04F0741A2FF582E43400F548
:1004030083740AF090000EE0241AF582E43400F5B8
:1004130083E4F090000EF0E0FF04F0741A2FF582ED
:10042300E43400F583E0F5991200037BFF7A0A793F
:1004330079120E05120E7C90000AE06002D202903F
:10044300000BE06002D203C20612047A90006CE053
:10045300900071F090006DE0900072F090006EE0FB
:10046300900073F090006FE0900074F0900070E0E3
:07047300900075F002002962
:070EC9007590E075B0F922FD
:100E7C00E58954F04401F589E4FF758CEEE4F58ABC
:0C0E8C00D28C308DFDC28D0FEFB4C8EE8B
:010E98002237
:060EB500D292C293C2B20A
:0E0EBB00758CFF758AD2D28C308DFDC28D22CF
:0E0E9900C2B3D2B2C290C291C292D293C2B280
:0E0EA700758CF8758ACDD28C308DFDC28D22EF
:100BD100120EC9120E7CC2B3D2B2C290C291120ED1
:100BE100B5C2B3D2B2C290C291D292C293C2B20084
:100BF100C2B3D2B2D290C291C292120EB7C2B3D2D4
:100C0100B2C290C291C292C293C2B200C2B3D2B276
:100C1100D290D291D292D293C2B2120EBBC2B3D2AF
:100C2100B2C290C291C292C293C2B200120E991284
:100C31000EA7C2B3D2B2C290C291C292C293C2B243
:100C410000C2B3D2B2C290D291120EB5120EA7D287
:020C51009422EB
:10000300C2B3D2B2C290C291C292C293C2B2001220
:050013000E99020EA78A
:050E37009290AF041DC4
:100E3C007401A805088002C333D8FC5FFFAE05A877
:0E0E4C0006088002C313D8FC24FF9207A207F9
:010E5A002275
:100DC000AC07D2B3D2B27D07120E3C120E3792910D
:100DD000AF041D120E3C9292AF041D120E3C929372
:100DE000C2B200D2B2AF041D120E3C120E37929165
:100DF000AF041D120E3C9292AF041D120E3C929352
:050E0000C2B2020EBBAE
:0B0E05009000A9EBF0A3EAF0A3E9F0D5
:100E1000E4A3F09000A9E0FBA3E0FAA3E0F9A3E0CB
:100E2000F5827583001209BDFF600B120DC09000A2
:060E3000ACE004F080DDDF
:010E36002299
:100E5B00C2B3D2B2D290D291C292C293C2B200D2DA
:100E6B00B2C290C291C292C293C2B2120EA7020E2C
:010E7B00A7CF
:03000000020B45AB
:0C0B4500787FE4F6D8FD758120020B8C4F
:1008AE00E709F608DFFA8046E709F208DFFA803E2C
:1008BE0088828C83E709F0A3DFFA8032E309F60819
:1008CE00DFFA8078E309F208DFFA807088828C8381
:1008DE00E309F0A3DFFA806489828A83E0A3F60835
:1008EE00DFFA805889828A83E0A3F208DFFA804C0F
:1008FE0080D280FA80C680D4806980F280338010E6
:10090E0080A680EA809A80A880DA80E280CA80334E
:10091E0089828A83ECFAE493A3C8C582C8CCC583C6
:10092E00CCF0A3C8C582C8CCC583CCDFE9DEE78096
:10093E000D89828A83E493A3F608DFF9ECFAA9F015
:10094E00EDFB2289828A83ECFAE0A3C8C582C8CC6B
:10095E00C583CCF0A3C8C582C8CCC583CCDFEADE84
:10096E00E880DB89828A83E493A3F208DFF980CCE6
:10097E0088F0EF60010E4E60C388F0ED2402B404DF
:10098E000050B9F582EB2402B4040050AF23234586
:06099E0082239008FE73A5
:1009A400BB010689828A83E0225002E722BBFE0251
:0909B400E32289828A83E4932284
:1009BD00BB010CE58229F582E5833AF583E02250EF
:1009CD0006E92582F8E622BBFE06E92582F8E22239
:0D09DD00E58229F582E5833AF583E4932253
:1009EA00BB010989828A83F8E028F022500327F79D
:1009FA0022BBFE05F8E328F3228A838982F8E4936E
:020A0A002822A0
:100A0C00BB010689828A83F0225002F722BBFE01C9
:020A1C00F322C3
:100A1E00C5F0F8A3E028F0C5F0F8E5821582700263
:060A2E001583E038F02200
:100A3400D083D082F8E4937012740193700DA3A351
:100A440093F8740193F5828883E473740293B5F088
:0D0A5400067403936860E9A3A3A3A380D8F0
:100B5100020026E493A3F8E493A34003F68001F294
:100B610008DFF48029E493A3F85407240CC8C333A5
:100B7100C4540F4420C8834004F456800146F6DF74
:100B8100E4800B0102040810204080900C53E47EA5
:100B9100019360BCA3FF543F30E509541FFEE49369
:100BA100A360010ECF54C025E060A840B8E493A330
:100BB100FAE493A3F8E493A3C8C582C8CAC583CA5B
:100BC100F0A3C8C582C8CAC583CADFE9DEE780BE13
:010CC3000030
:00000001FF
