:10091800505200504E5200425A4D3A20005A41550A
:100928005A005253542E2E2E005374616E6A653A43
:10093800200000526164692E0A00004E6520726131
:1009480064692E0A00005472656E75746E6F206EAD
:1009580061207061726B696E67753A2000002D2DF9
:100968002D2D2D2D2D2D2D2D2D2D2D2D2D2D2D2DAF
:100978002D2D2D00005061726B696E67207A6175AC
:100988007A65742E0A00002D2D2D2D2D2D2D2D2D3F
:100998002D2D2D2D2D2D2D2D2D2D2D2D0A000052D7
:1009A800616D70612073652072657374617274750E
:1009B8006A652E2E2E0A00002D2D2D2D2D2D2D2D64
:0F09C8002D2D2D2D2D2D2D2D2D2D2D2D2D0000D7
:100AE500410018014100190041000C0041000D00B2
:100AF50041001600410010014100120041000800AC
:100B05004100090041000F00410015014100170097
:100B150041000A0041000B0041001400410005009E
:100B2500410006004100110041001300410004008E
:100B35004200000000420002000041000E00C10713
:100B4500C100C106C105C102C103C104C101410003
:020B5500070097
:100B5800900060EBF0A3EAF0A3E9F0A3E0FBA3E0C8
:100B6800FAA3E0F912085BFF900060E0FBA3E0FA4B
:100B7800A3E0F912085BB50734900069E0FBA3E035
:100B8800FAA3E0F974011208A1B40530E41208C30D
:100B9800900060E0FBA3E0FAA3E0F912085BFF9085
:100BA8000066E0FBA3E0FAA3E0F9EF800C9000698F
:0D0BB800E0FBA3E0FAA3E0F9E41208C32279
:03001B0002059F3C
:10059F00C0E0C0F0C083C082C0D075D000C000C022
:1005AF0001C002C003C006C007758DEE758B003009
:1005BF000635900000E475F0011208D5FEE5F08EC7
:1005CF00F01208EB05E7009605E7012C05E701C2DD
:1005DF0005EB0258000005F6B2A7800BC20690008B
:1005EF0000E4F0A3F0D2A730051C900002E475F0F0
:1005FF00011208D5AFF0FEBE030CBFE809C205908B
:10060F000002E4F0A3F0A280E433900010F0A28186
:10061F00E433900012F0A282E433900008F0A2833A
:10062F00E433A3F0A284E43390000FF090006374DE
:10063F0001F0A37400F0A37418F0A37401F0A37475
:10064F0000F0A37415F0A37401F0A37400F0A37469
:10065F0005F07B017A007910120B5890006374013A
:10066F00F0A37400F0A37419F0A37401F0A3740045
:10067F00F0A37417F0A37401F0A37400F0A3740631
:10068F00F07B017A007912120B589000637401F01D
:10069F00A37400F0A3740CF0A37401F0A37400F022
:1006AF00A3740AF0A37401F0A37400F0A37411F003
:1006BF007B017A007908120B589000637401F0A344
:1006CF007400F0A3740DF0A37401F0A37400F0A3F1
:1006DF00740BF0A37401F0A37400F0A37413F07BF8
:1006EF00017A007909120B589000637401F0A3741A
:1006FF0000F0A37416F0A37401F0A37400F0A374B8
:10070F0014F0A37401F0A37400F0A37404F07B0140
:10071F007A00790F120B58900010E0900018F090AB
:10072F000012E0900019F0900008E090000CF0909B
:10073F000009E090000DF090000FE0900016F0D04F
:10074F0007D006D003D002D001D000D0D0D082D0B5
:06075F0083D0F0D0E0326F
:03002300020BC508
:100BC500C0E0C083C082C0D075D000C00730992E68
:100BD500C29990000EE0241AF582E43400F583E012
:100BE50090000E6013E0FF04F0741A2FF582E434D0
:100BF50000F583E0F5998006E4F090001AF0D0073F
:090C0500D0D0D082D083D0E032BF
:100331001200037BFF2007067A09791880047A09E5
:10034100791B120C99120CEF7BFF7A09791F120CA1
:1003510099900007E0C3940950047F3080027F31F7
:10036100120C54900007E075F00A84E5F02430FF88
:03037100120C5417
:1003740078907C007D017BFF7A0979317E007F0AC9
:10038400120835E490009AF090009AE02490F582E7
:10039400E43400F583E0602890009AE0FF04F074F0
:1003A400902FF582E43400F583E0FF90000EE0FE28
:1003B40004F0741A2EF582E43400F583EFF080C85B
:0303C400200750BF
:1003C70078907C007D017BFF7A09793B7E007F086E
:1003D700120835E4900098F0900098E02490F58298
:1003E700E43400F583E06078900098E0FF04F0744F
:1003F700902FF582E43400F583E0FF90000EE0FED5
:1004070004F0741A2EF582E43400F583EFF080C807
:1004170078907C007D017BFF7A0979437E007F0B12
:10042700120835E490009BF090009BE02490F58241
:10043700E43400F583E0602890009BE0FF04F0744B
:10044700902FF582E43400F583E0FF90000EE0FE84
:1004570004F0741A2EF582E43400F583EFF080C8B7
:1004670078907C007D017BFF7A09794E7E007F18AA
:10047700120835E49000A8F09000A8E02490F582D7
:10048700E43400F583E060289000A8E0FF04F074EE
:10049700902FF582E43400F583E0FF90000EE0FE34
:1004A70004F0741A2EF582E43400F583EFF080C867
:1004B700900007E0FFC3940990000EE0FE0450107F
:1004C700F0741A2EF582E43400F5837430F0800E50
:1004D700F0741A2EF582E43400F5837431F0EF7569
:1004E700F00A84E5F02430FF90000EE0FE04F0747B
:1004F7001A2EF582E43400F583EFF090000EE0FF4A
:0F05070004F0741A2FF582E43400F583740AF0BF
:1005160078907C007D017BFF7A0979667E007F17E3
:10052600120835E49000A7F09000A7E02490F58229
:10053600E43400F583E060289000A7E0FF04F0743F
:10054600902FF582E43400F583E0FF90000EE0FE84
:1005560004F0741A2EF582E43400F583EFF080C8B7
:1005660090000EE0FF04F0741A2FF582E43400F5D3
:1005760083740AF090000EE0241AF582E43400F544
:1005860083E4F090000EF0E0FF04F0741A2FF58279
:09059600E43400F583E0F599223C
:100C0E00C2AF120A63D280C281C282C283C284750D
:100C1E009850E587543F4480F587E59B54E0441C8B
:100C2E00F59B759AFDD2AC758DEEE4F58BE5895486
:100C3E000F4410F589D2ABD28ED2AB120331E4F54C
:060C4E00A0D2A7D2AF22E4
:10002600120C0E900015E090006CF0900017E09016
:10003600006DF090000AE090006EF090000BE090EA
:10004600006FF0900014E0900070F030070302019A
:10005600FA900073E0FF90006EE0FED39F5015907B
:100066000074E0FD90006FE09D5009200306200417
:1000760003020306EED39F50062003030201659098
:0A0086000007E06401600302016559
:1000900078767C007D017BFF7A09797DFE7F1212E4
:1000A0000835E4900088F0900088E02476F582E43A
:1000B0003400F583E06028900088E0FF04F0747657
:1000C0002FF582E43400F583E0FF90000EE0FE049B
:0F00D000F0741A2EF582E43400F583EFF080C847
:1000DF0078767C007D017BFF7A09798F7E007F180F
:1000EF00120835E490008EF090008EE02476F582B1
:1000FF00E43400F583E0602890008EE0FF04F07494
:10010F00762FF582E43400F583E0FF90000EE0FED9
:10011F0004F0741A2EF582E43400F583EFF080C8F2
:10012F0090000EE0241AF582E43400F583E4F09099
:10013F00000EF0E0FF04F0741A2FF582E43400F59E
:10014F0083E0F5991200037BFF7A097925120C9948
:10015F00120D10020303D206300604D2A080F9C29A
:10016F00A0120D10900017E06070D20520050A90C4
:10017F00000AE07004A3E0600E90000AE060EDA3B7
:10018F00E060E9D20180E5120D1020013690007376
:10019F00E0FF90006EE0D39F500330030B900007F9
:1001AF00E004F0B40F02D202900074E0FF90006FF1
:1001BF00E0D39F500330040B900007E014F0B40E0F
:1001CF0002C202120331D206300604D2A180F9C254
:1001DF00A1120D10900015E07008D2071203310222
:1001EF000029C203C204C201020306900075E0FF9A
:0B01FF00900070E0D39F500302030645
:10020A0078767C007D017BFF7A0979A77E007F19C9
:10021A00120835E490008FF090008FE02476F58282
:10022A00E43400F583E0602890008FE0FF04F07466
:10023A00762FF582E43400F583E0FF90000EE0FEAD
:10024A0004F0741A2EF582E43400F583EFF080C8C6
:10025A0078767C007D017BFF7A0979C07E007F1762
:10026A00120835E490008DF090008DE02476F58236
:10027A00E43400F583E0602890008DE0FF04F07418
:10028A00762FF582E43400F583E0FF90000EE0FE5D
:10029A0004F0741A2EF582E43400F583EFF080C876
:1002AA0090000EE0FF04F0741A2FF582E43400F592
:1002BA0083740AF090000EE0241AF582E43400F503
:1002CA0083E4F090000EF0E0FF04F0741A2FF58238
:1002DA00E43400F583E0F5991200037BFF7A09798B
:1002EA002A120C99120D1090000AE06002D20390B3
:1002FA00000BE06002D204C20712033190006CE0E6
:10030A00900071F090006DE0900072F090006EE045
:10031A00900073F090006FE0900074F0900070E02D
:07032A00900075F0020029AC
:070D5D007590E075B0F9226A
:100D1000E58954F04401F589E4FF758CEEE4F58A29
:0C0D2000D28C308DFDC28D0FEFB4C8EEF8
:010D2C0022A4
:060D4900D292C293C2B277
:0E0D4F00758CFF758AD2D28C308DFDC28D223C
:0E0D2D00C2B3D2B2C290C291C292D293C2B2ED
:0E0D3B00758CF8758ACDD28C308DFDC28D225C
:100A6300120D5D120D10C2B3D2B2C290C291120D1B
:100A730049C2B3D2B2C290C291D292C293C2B2005F
:100A8300C2B3D2B2D290C291C292120D4BC2B3D2B0
:100A9300B2C290C291C292C293C2B200C2B3D2B2E6
:100AA300D290D291D292D293C2B2120D4FC2B3D28C
:100AB300B2C290C291C292C293C2B200120D2D1261
:100AC3000D3BC2B3D2B2C290C291C292C293C2B220
:100AD30000C2B3D2B2C290D291120D49120D3BD2D1
:020AE30094225B
:10000300C2B3D2B2C290C291C292C293C2B2001220
:050013000D2D020D3B64
:050CCB009290AF041D32
:100CD0007401A805088002C333D8FC5FFFAE05A8E5
:0E0CE00006088002C313D8FC24FF9208A20865
:010CEE0022E3
:100C5400AC07D2B3D2B27D07120CD0120CCB929156
:100C6400AF041D120CD09292AF041D120CD09293BB
:100C7400C2B200D2B2AF041D120CD0120CCB9291AE
:100C8400AF041D120CD09292AF041D120CD092939B
:050C9400C2B2020D4F89
:0B0C99009000A9EBF0A3EAF0A3E9F043
:100CA400E4A3F09000A9E0FBA3E0FAA3E0F9A3E039
:100CB400F582758300120874FF600B120C549000C7
:060CC400ACE004F080DD4D
:010CCA002207
:100CEF00C2B3D2B2D290D291C292C293C2B200D248
:100CFF00B2C290C291C292C293C2B2120D3B020D08
:010D0F003BA8
:030000000209D71B
:0C09D700787FE4F6D8FD758121020A1E2D
:10076500E709F608DFFA8046E709F208DFFA803E76
:1007750088828C83E709F0A3DFFA8032E309F60863
:10078500DFFA8078E309F208DFFA807088828C83CB
:10079500E309F0A3DFFA806489828A83E0A3F6087F
:1007A500DFFA805889828A83E0A3F208DFFA804C59
:1007B50080D280FA80C680D4806980F28033801030
:1007C50080A680EA809A80A880DA80E280CA803399
:1007D50089828A83ECFAE493A3C8C582C8CCC58311
:1007E500CCF0A3C8C582C8CCC583CCDFE9DEE780E1
:1007F5000D89828A83E493A3F608DFF9ECFAA9F060
:10080500EDFB2289828A83ECFAE0A3C8C582C8CCB5
:10081500C583CCF0A3C8C582C8CCC583CCDFEADECE
:10082500E880DB89828A83E493A3F208DFF980CC30
:1008350088F0EF60010E4E60C388F0ED2402B40429
:100845000050B9F582EB2402B4040050AF232345D0
:0608550082239007B57339
:10085B00BB010689828A83E0225002E722BBFE029B
:09086B00E32289828A83E49322CE
:10087400BB010CE58229F582E5833AF583E0225039
:1008840006E92582F8E622BBFE06E92582F8E22283
:0D089400E58229F582E5833AF583E493229D
:1008A100BB010989828A83F8E028F022500327F7E7
:1008B10022BBFE05F8E328F3228A838982F8E493B8
:0208C1002822EB
:1008C300BB010689828A83F0225002F722BBFE0114
:0208D300F3220E
:1008D500C5F0F8A3E028F0C5F0F8E58215827002AE
:0608E5001583E038F0224B
:1008EB00D083D082F8E4937012740193700DA3A39C
:1008FB0093F8740193F5828883E473740293B5F0D3
:0D090B00067403936860E9A3A3A3A380D83A
:1009E300020026E493A3F8E493A34003F68001F204
:1009F30008DFF48029E493A3F85407240CC8C33315
:100A0300C4540F4420C8834004F456800146F6DFE3
:100A1300E4800B0102040810204080900AE5E47E84
:100A2300019360BCA3FF543F30E509541FFEE493D8
:100A3300A360010ECF54C025E060A840B8E493A39F
:100A4300FAE493A3F8E493A3C8C582C8CAC583CACA
:100A5300F0A3C8C582C8CAC583CADFE9DEE780BE82
:010B5700009D
:00000001FF
